:100000000C9462000C948A000C948A000C948A0070
:100010000C948A000C948A000C948A000C948A0038
:100020000C948A000C948A000C948A000C948A0028
:100030000C948A000C948A000C948A000C948A0018
:100040000C94BE010C948A000C942E020C940802AD
:100050000C948A000C948A000C948A000C948A00F8
:100060000C948A000C948A000000000025002800EF
:100070002B0000000000240027002A0000000000E0
:1000800023002600290004040404040404040202DA
:100090000202020203030303030301020408102007
:1000A0004080010204081020010204081020000012
:1000B0000008000201000003040700000000000027
:1000C0000000600211241FBECFEFD8E0DEBFCDBF1D
:1000D00011E0A0E0B1E0EAE9F7E002C005900D927E
:1000E000A232B107D9F721E0A2E2B1E001C01D922E
:1000F000A83CB207E1F710E0C2E6D0E004C02197C7
:10010000FE010E94C503C136D107C9F70E949802BB
:100110000C94CB030C9400003FB7F894809123011A
:1001200090912401A0912501B091260126B5A89BAC
:1001300005C02F3F19F00196A11DB11D3FBFBA2F79
:10014000A92F982F8827BC01CD01620F711D811D39
:10015000911D42E0660F771F881F991F4A95D1F7BE
:100160000895AF92BF92CF92DF92EF92FF920F93DA
:100170001F93CF93DF936C017B018B01040F151F3D
:10018000EB015E01AE18BF08C017D10759F06991A5
:10019000D601ED91FC910190F081E02DC601099509
:1001A000892B79F7C501DF91CF911F910F91FF90B6
:1001B000EF90DF90CF90BF90AF900895FC01538DEA
:1001C000448D252F30E0842F90E0821B930B541731
:1001D00010F0CF96089501970895FC01918D828DBE
:1001E000981761F0A28DAE0FBF2FB11D5D968C9157
:1001F000928D9F5F9F73928F90E008958FEF9FEF96
:100200000895FC01918D828D981731F0828DE80F51
:10021000F11D858D90E008958FEF9FEF0895FC010B
:10022000918D228D892F90E0805C9F4F821B9109D8
:100230008F739927089587E291E00E940F0121E0D2
:10024000892B09F420E0822F089580E090E0892B2B
:1002500029F00E941B0181110C9400000895FC01FB
:10026000A48DA80FB92FB11DA35ABF4F2C91848D17
:1002700090E001968F739927848FA689B7892C9374
:10028000A089B1898C91837080648C93938D848DC7
:10029000981306C00288F389E02D80818F7D8083CA
:1002A0000895EF92FF920F931F93CF93DF93EC018A
:1002B00081E0888F9B8D8C8D98131AC0E889F9890D
:1002C000808185FF15C09FB7F894EE89FF89608310
:1002D000E889F98980818370806480839FBF81E091
:1002E00090E0DF91CF911F910F91FF90EF900895D3
:1002F000F62E0B8D10E00F5F1F4F0F731127E02EAE
:100300008C8D8E110CC00FB607FCFACFE889F989E5
:10031000808185FFF5CFCE010E942F01F1CFEB8DBB
:10032000EC0FFD2FF11DE35AFF4FF0829FB7F894B9
:100330000B8FEA89FB8980818062CFCFCF93DF93D7
:10034000EC01888D8823B9F0AA89BB89E889F989ED
:100350008C9185FD03C0808186FD0DC00FB607FC22
:10036000F7CF8C9185FFF2CF808185FFEDCFCE0155
:100370000E942F01E9CFDF91CF9108951F920F9234
:100380000FB60F9211242F933F938F939F93AF93A8
:10039000BF938091C4019091C501A091C601B09115
:1003A000C7013091220123E0230F2D3758F5019624
:1003B000A11DB11D209322018093C4019093C5011A
:1003C000A093C601B093C7018091230190912401AD
:1003D000A0912501B09126010196A11DB11D809328
:1003E000230190932401A0932501B0932601BF918E
:1003F000AF919F918F913F912F910F900FBE0F90D2
:100400001F90189526E8230F0296A11DB11DD2CF8B
:100410001F920F920FB60F9211242F933F934F9379
:100420005F936F937F938F939F93AF93BF93EF935C
:10043000FF9387E291E00E942F01FF91EF91BF911E
:10044000AF919F918F917F916F915F914F913F916C
:100450002F910F900FBE0F901F9018951F920F9223
:100460000FB60F9211242F938F939F93EF93FF93C7
:10047000E0913701F09138018081E0913D01F091E8
:100480003E0182FD1BC09081809140018F5F8F7380
:1004900020914101821741F0E0914001F0E0E95DD7
:1004A000FE4F958F80934001FF91EF919F918F9127
:1004B0002F910F900FBE0F901F9018958081F4CF51
:1004C000E7E2F1E01382128288EE93E0A0E0B0E070
:1004D00084839583A683B78384E091E091838083AE
:1004E00085EC90E09587848784EC90E097878687F9
:1004F00080EC90E0918B808B81EC90E0938B828BF1
:1005000082EC90E0958B848B86EC90E0978B868BC9
:10051000118E128E138E148E8FB7F8944091C401F1
:100520005091C5016091C6017091C7018FBF0895B8
:10053000789484B5826084BD84B5816084BD85B5BE
:10054000826085BD85B5816085BD80916E008160CA
:1005500080936E0010928100809181008260809370
:100560008100809181008160809381008091800072
:100570008160809380008091B10084608093B1009D
:100580008091B00081608093B00080917A00846097
:1005900080937A0080917A00826080937A008091C3
:1005A0007A00816080937A0080917A0080688093DD
:1005B0007A001092C100E0913701F091380182E099
:1005C0008083E0913301F09134011082E091350194
:1005D000F091360180E1808310923F01E0913B0170
:1005E000F0913C0186E08083E0913901F0913A017D
:1005F000808180618083E0913901F0913A018081AE
:1006000088608083E0913901F0913A0180818068AF
:100610008083E0913901F0913A0180818F7D808360
:10062000CDE9D0E0FE01249109E810E0F8018491C1
:100630008823C9F090E0880F991FFC01EE58FF4F06
:10064000A591B491FC01E859FF4F459154913FB7F2
:10065000F8949C91822F809598239C93FA01908125
:10066000892380833FBF31EB832E30E0932E40E01F
:10067000A42E40E0B42EF4018491FE019491F8017F
:100680002491222309F453C0882359F0833009F4BC
:1006900065C008F058C0813009F466C0823009F4A2
:1006A00067C0E22FF0E0EE0FFF1FE458FF4FA59167
:1006B000B4918C91982321E030E011F430E020E0F7
:1006C000232BA9F14CE050E062E171E087E291E078
:1006D0000E94B10042E050E06FE171E087E291E0FA
:1006E0000E94B1000E948C002B013C0184EFC82EB7
:1006F000DD24D394E12CF12C0E948C00641975093F
:1007000086099709683E734081059105A8F3F1E0D9
:10071000CF1AD108E108F10828EE420E23E0521E5C
:10072000611C711CC114D104E104F10429F7A11466
:10073000B10409F4A0CF0E941B01882309F49BCFC8
:100740000E94000098CF8730B1F08830D1F084301B
:1007500009F0A7CF809180008F7D03C08091800039
:100760008F77809380009DCF84B58F7784BD99CF9C
:1007700084B58F7DFBCF8091B0008F778093B000E0
:1007800090CF8091B0008F7DF9CFEE0FFF1F0590C5
:0A079000F491E02D0994F894FFCFD6
:10079A00000000005101B100DE009E010F01ED00D2
:1007AA000101495220446574656374656421000D32
:0207BA000A0033
:00000001FF
